:020000040800F2
:1000000000000220D55D0008B15B0008B35B00086A
:10001000B55B0008DD5B0008DF5B00080000000046
:10002000000000000000000000000000B30800080D
:10003000E15B000800000000F107000885080008E7
:10004000255E0008255E0008255E0008255E000884
:10005000255E0008255E0008255E0008255E000874
:10006000255E0008255E0008255E0008255E000864
:10007000255E0008255E0008255E0008255E000854
:10008000255E0008255E0008E55B00080000000012
:10009000000000000000000000000000255E0008D5
:1000A000255E0008F55B0008255E0008255E000857
:1000B000255E0008255E0008255E0008255E000814
:1000C000255E0008255E0008255E0008255E000804
:1000D000255E0008255E0008255E0008000000007F
:1000E000255E0008255E0008255E0008000000006F
:1000F000000000000000000000000000255E000875
:1001000000000000255E0008255E0008255E00084E
:1001100000000000000000000000000000000000DF
:10012000255E0008255E0008255E0008255E0008A3
:10013000255E000800000000000000000000000034
:10014000000000000000000000000000255E000824
:10015000255E0008255E0008255E0008255E000873
:10016000255E0008255E0008000000000000000079
:10017000000000000000000000000000000000007F
:1001800000000000255E00080000000000000000E4
:10019000255E0008255E00081AB9084205D1104600
:1001A0007047814303D00020704701207047012031
:1001B000704780B110B582B0044618230193019BAB
:1001C000182B11D04FF0500383F31188BFF36F8FBA
:1001D000BFF34F8FFEE74FF0500383F31188BFF357
:1001E0006F8FBFF34F8FFEE7002340F8043B04F00E
:1001F00077F8204602B010BD88B12DE9F0410C46D9
:1002000016461D460746B1F1807F11D34FF05003CB
:1002100083F31188BFF36F8FBFF34F8FFEE74FF06B
:10022000500383F31188BFF36F8FBFF34F8FFEE747
:1002300041B94FF0500383F31188BFF36F8FBFF3C1
:100240004F8FFEE702F072FF50B9069B43B14FF0AB
:10025000500383F31188BFF36F8FBFF34F8FFEE717
:1002600002F0D0F9D7F800802A4621464046FFF731
:1002700093FFF8B18EB328EA04033B600023069392
:1002800002F0B6FC069B93B148B94FF0E0234FF063
:100290008052C3F8042DBFF34F8FBFF36F8F02F06E
:1002A0002DFF804610F0007F1AD028F07F4840468E
:1002B000BDE8F081069B002BE2D05EB900210DB1B4
:1002C00041F08061069A2143381D02F09DFD4FF0F8
:1002D0000008D5E74FF08071F1E700230693CFE7E0
:1002E00004F0F6F8D7F800802A4621464046FFF78A
:1002F00053FF18B116B128EA04043C6004F0FCF87E
:10030000D3E770B170B50C460546B1F1807F11D3CB
:100310004FF0500383F31188BFF36F8FBFF34F8FFC
:10032000FEE74FF0500383F31188BFF36F8FBFF3E5
:100330004F8FFEE704F0CCF82E6826EA04042C6008
:1003400004F0DAF8304670BDF8B568B10D460446E1
:10035000B1F1807F11D34FF0500383F31188BFF3C5
:100360006F8FBFF34F8FFEE74FF0500383F3118879
:10037000BFF36F8FBFF34F8FFEE700F10C0602F063
:1003800041F9206923682B43236000270AE0216894
:1003900032EA010105D111E0216841F0007102F05B
:1003A000A5FD2846B0420ED04568036823F07F4281
:1003B00013F0806FEBD121681142F2D013F0807FEF
:1003C000EAD01743E8E7236823EA0703236002F033
:1003D0000FFC2068F8BDB2F1807F08D34FF05003C6
:1003E00083F31188BFF36F8FBFF34F8FFEE72DE9C3
:1003F000F04107460D4614461E4642B94FF05003E1
:1004000083F31188BFF36F8FBFF34F8FFEE702F0C6
:100410008DFE48B946B14FF0500383F31188BFF306
:100420006F8FBFF34F8FFEE702F0ECF8D7F8008034
:1004300029463846FFF788FF48EA050534EA0503F0
:100440001AD0FEB93D6802F0D3FB96B148B94FF01F
:10045000E0234FF08052C3F8042DBFF34F8FBFF35A
:100460006F8F02F04BFE054610F0007F12D025F092
:100470007F452846BDE8F0813B6823EA04033B60E2
:100480000026E0E7324644F0A061381D02F0BCFCD3
:100490000025D8E704F01CF83D6834EA050302D0D3
:1004A00004F02AF8E3E725EA04043C60F8E7EFF3F8
:1004B00011834FF0500282F31188BFF36F8FBFF3A7
:1004C0004F8F006883F31188704710B5044602F01F
:1004D00099F8636893B1206904F10C03984204D041
:1004E0004FF0007102F002FDF3E74FF0500383F389
:1004F0001188BFF36F8FBFF34F8FFEE702F078FBD9
:1005000010BD08B5FFF720FF08BD08B5FFF7F9FEDD
:1005100008BD000000000000000000000000000016
:10052000042320221E2B04D8824202D2013352001F
:10053000F8E75800704738B54FF0E023D3F8903D06
:10054000B3F5006F06D04FF0E023D3F8903DB3F53C
:10055000805F42D1214D45F010034FF0E024C4F8F4
:100560009C3D1F48401BFFF7DBFF1E4B0343C4F8B5
:10057000A03D45F01103C4F89C3D1B48401BFFF70C
:10058000CFFF1A4B0343C4F8A03D194B43F01202AE
:10059000C4F89C2D1748C01AFFF7C2FF40F08170C5
:1005A00040F00110C4F8A00D134BC4F89C3D6FF04F
:1005B0006040FFF7B5FF40F0985040F00100C4F8EC
:1005C000A00DD4F8243D43F48033C4F8243DD4F87E
:1005D000943D43F00503C4F8943D38BD0000000885
:1005E00000000808010003060000010801000305DF
:1005F000000000200000012013000040EB480068CC
:10060000006880F30888124B1968086801F104013A
:10061000BFF35F8FE64A136823F001031360E54AD6
:10062000B1E8F00FA2E8F00FE14A136843F00103CC
:100630001360BFF34F8FB0E8F84F83F3148880F353
:1006400009884FF0000080F311887047AFF30080F5
:100650006801002008B5826912F8023C012B0ED017
:10066000022B17D003B108BD4FF0E022D2F81C3D99
:1006700043F09E43C2F81C3DFFF7C0FFF3E74FF085
:10068000E0234FF08052C3F8042DBFF34F8FBFF328
:100690006F8FE8E7064B9342E5D8064B9342E2D3CF
:1006A000EFF3148121F0010181F31488DBE700BF2F
:1006B000503400080C3B000884464FF080704CF822
:1006C000040C21F001014CF8081C00214CF80C1C12
:1006D0004CF8202C6FF002024CF8242CACF14800AE
:1006E000012B03D003234CF8483C704702234CF8FD
:1006F000483C7047074B1B68B3F57A7F08D04FF032
:10070000500383F31188BFF36F8FBFF34F8FFEE762
:10071000704700BFEC0100202DE9F041064669B1A9
:10072000884643B142F0140202609800FFF7F8FED9
:100730002A4B034373600124002732E0284B43F027
:10074000140202602748C01AFFF7EAFE234B034356
:100750007360254B43F01502B2602448C01AFFF7BE
:10076000DFFE40F0817040F00110F060022309E0EC
:100770001A1D42F0100246F8332006EBC302002196
:1007800051600133032BF3D9BDE8F081231D43F001
:10079000100346F8343006EBC40300225A600137D8
:1007A0000134032CF0D807EB4705AA0008EB8505B8
:1007B0006B68002BEAD058F80230221D134343F037
:1007C000100346F834306868FFF7AAFEAB68184398
:1007D00040F0010006EBC4035860E0E701000303AA
:1007E0000000002000000220000000200000012086
:1007F000EFF30980BFF36F8F214B1A681EF0100FC3
:1008000008BF20ED108AEFF3148120E9F24F106049
:100810002DE909004FF0500080F31188BFF34F8F8E
:10082000BFF36F8F02F0A8FB4FF0000080F3118838
:1008300009BC1968086801F10401BFF35F8F5C4AC5
:10084000136823F0010313605A4AB1E8F00FA2E8DD
:10085000F00F574A136843F001031360BFF34F8F43
:10086000B0E8F84F83F314881EF0100F08BFB0EC07
:10087000108A80F309887047AFF30080AFF30080DF
:100880006801002010B5EFF311844FF0500383F39B
:100890001188BFF36F8FBFF34F8F02F01BF928B1A0
:1008A0004FF0E0234FF08052C3F8042D84F31188F9
:1008B00010BD1EF0040F0CBFEFF30880EFF30980AA
:1008C000C8E630B583B0354B1A78D2B20192FF2218
:1008D0001A701B78DBB28DF803309DF8033003F0FB
:1008E00050032F4A13702F4B07221A6009E02D4A3C
:1008F0001368013B13609DF803305B00DBB28DF899
:1009000003309DF8033013F0800FF0D1254B1B68A6
:10091000032B08D04FF0500383F31188BFF36F8F80
:10092000BFF34F8FFEE71B021E4A136003F4E06320
:100930001360019BDBB2194A13704FF0E024D4F826
:10094000203D43F47003C4F8203DD4F8203D43F02B
:100950007043C4F8203DFFF7EEFD03F0E7FD0025EE
:10096000114B1D6003F0AAFDD4F8343F43F040431F
:10097000C4F8343F0D480068006880F308884FF0E1
:10098000000080F3148862B661B6BFF34F8FBFF3E7
:100990006F8F00DF00BF284603B030BD00E400E0E9
:1009A0000418002000180020EC01002008ED00E0F1
:1009B00094ED00E09CED00E00346406A18B11B6B2B
:1009C0001868C0F10700704710B5044603F080FDB9
:1009D000A26BE36B9A4204D0002403F08DFD204605
:1009E00010BD0124F9E738B5054603F071FD95F80F
:1009F000454064B201E0013C64B2002C0ADD6B6A40
:100A000043B105F1240002F02BFA0028F3D002F0E4
:100A100087FBF0E7FF2385F8453003F06DFD03F019
:100A200057FD95F8444064B201E0013C64B2002CEB
:100A30000ADD2B6943B105F1100002F011FA00281C
:100A4000F3D002F06DFBF0E7FF2385F8443003F0AC
:100A500053FD38BD10B5044603F03AFDA36B23B92E
:100A6000012403F049FD204610BD0024F9E770B5CC
:100A700004461546866B026C5AB903681BB1002008
:100A80000136A66370BD806802F0B6FB0023A36048
:100A9000F6E76DB9406803F0A5F86368226C13446B
:100AA0006360A268934219D3236863602846E7E72E
:100AB000C06803F097F8E368226C51429B1AE36028
:100AC0002268934202D2A3680B44E360022D01D056
:100AD0000020D5E726B1013E0020D1E72846CFE728
:100AE0000020CDE70346026C6AB110B50846D9680C
:100AF0001144D9609C68A14201D31968D960D968B2
:100B000003F070F810BD7047F0B585B0019288B160
:100B10000F461D460446B1B1022D20D1E36B012BD7
:100B20001DD04FF0500383F31188BFF36F8FBFF3D5
:100B30004F8FFEE74FF0500383F31188BFF36F8FA1
:100B4000BFF34F8FFEE7036C002BE5D04FF050034F
:100B500083F31188BFF36F8FBFF34F8FFEE702F06F
:100B6000E5FA064658B9019B002B48D04FF05003D8
:100B700083F31188BFF36F8FBFF34F8FFEE700261B
:100B80003DE02A4639462046FFF771FF636A7BB98C
:100B900048B14FF0E0234FF08052C3F8042DBFF36B
:100BA0004F8FBFF36F8F03F0A7FC012005B0F0BD9E
:100BB00004F1240002F054F90028F4D04FF0E023AF
:100BC0004FF08052C3F8042DBFF34F8FBFF36F8FE8
:100BD000E9E703F091FC0020E8E702A802F0EAFB55
:100BE000012619E0002384F8443021E0002384F832
:100BF000453023E02046FFF7F6FE01F0F9FF03F051
:100C000067FCA26BE36B9A42BBD3022DB9D0019B68
:100C1000002BDED0002EE0D003F06EFC01F0F2FCE1
:100C200003F056FC94F8442052B2B2F1FF3FD9D001
:100C300094F8452052B2B2F1FF3FD7D003F05CFCEC
:100C400001A902A802F0C2FBD8B92046FFF7BCFEFA
:100C50000028CFD0019904F1100002F0BDF8204621
:100C6000FFF7C1FE01F0C4FF0028C8D14FF0E02318
:100C70004FF08052C3F8042DBFF34F8FBFF36F8F37
:100C8000BDE72046FFF7AFFE01F0B2FF00208DE781
:100C900048B108B5002181600160C1600B460A4679
:100CA000FFF732FF08BD704770B584B0019290B174
:100CB0000E460446C1B102F039FA054600BB019B5D
:100CC000002B5ED04FF0500383F31188BFF36F8F7A
:100CD000BFF34F8FFEE74FF0500383F31188BFF34C
:100CE0006F8FBFF34F8FFEE7036C002BE3D04FF005
:100CF000500383F31188BFF36F8FBFF34F8FFEE76D
:100D000000253EE0E56831462046FFF7EBFEE56052
:100D1000636A23B903F0F0FB012004B070BD04F155
:100D2000240002F09DF80028F4D04FF0E0234FF0AB
:100D30008052C3F8042DBFF34F8FBFF36F8FE9E7E5
:100D400003F0DAFB0020E8E702A802F033FB0125FC
:100D500021E0002384F8443029E0002384F8453062
:100D60002BE02046FFF73FFE01F042FF09E020465E
:100D7000FFF739FE01F03CFF2046FFF76BFE00282D
:100D80003FD103F0A5FBA36B002BBBD1019B002B34
:100D9000D6D0002DD8D003F0AFFB01F033FC03F028
:100DA00097FB94F844305BB2B3F1FF3FD1D094F895
:100DB00045305BB2B3F1FF3FCFD003F09DFB01A9FB
:100DC00002A802F003FB0028D1D12046FFF742FE23
:100DD0000028C6D0019904F1240001F0FDFF20464F
:100DE000FFF701FE01F004FF0028CAD14FF0E02315
:100DF0004FF08052C3F8042DBFF34F8FBFF36F8FB6
:100E0000BFE7002089E7F8B568B10D46044699B1FF
:100E1000236CEBB94FF0500383F31188BFF36F8F4E
:100E2000BFF34F8FFEE74FF0500383F31188BFF3FA
:100E30006F8FBFF34F8FFEE7036C002BE8D04FF0AE
:100E4000500383F31188BFF36F8FBFF34F8FFEE71B
:100E500003F096FBEFF311864FF0500383F31188F4
:100E6000BFF36F8FBFF34F8FA36B1BB9002086F3C7
:100E70001188F8BDE76829462046FFF733FEE76092
:100E80000120F4E7F0B585B0019290B10F46044619
:100E9000C1B102F04BF9064600BB019B002B5ED0AE
:100EA0004FF0500383F31188BFF36F8FBFF34F8F61
:100EB000FEE74FF0500383F31188BFF36F8FBFF34A
:100EC0004F8FFEE7036C002BE3D04FF0500383F30A
:100ED0001188BFF36F8FBFF34F8FFEE700263EE010
:100EE00039462046FFF7FEFD013DA563236923B97E
:100EF00003F002FB012005B0F0BD04F1100001F089
:100F0000AFFF0028F4D04FF0E0234FF08052C3F839
:100F1000042DBFF34F8FBFF36F8FE9E703F0ECFAB7
:100F20000020E8E702A802F045FA012621E00023AC
:100F300084F8443029E0002384F845302BE0204633
:100F4000FFF751FD01F054FE09E02046FFF74BFD8D
:100F500001F04EFE2046FFF77DFD00283FD103F053
:100F6000B7FAA56B002DBBD1019B002BD6D0002E6C
:100F7000D8D003F0C1FA01F045FB03F0A9FA94F8C8
:100F800044305BB2B3F1FF3FD1D094F845305BB24F
:100F9000B3F1FF3FCFD003F0AFFA01A902A802F0EE
:100FA00015FA0028D1D12046FFF754FD0028C6D0FD
:100FB000019904F1240001F00FFF2046FFF713FD13
:100FC00001F016FE0028CAD14FF0E0234FF0805206
:100FD000C3F8042DBFF34F8FBFF36F8FBFE700201F
:100FE00089E740B110B5044603F072FAA46B03F030
:100FF00083FA204610BD4FF0500383F31188BFF3EE
:101000006F8FBFF34F8FFEE738B548B1054603F049
:101010005FFAEC6BAB6BE41A03F06EFA204638BD56
:101020004FF0500383F31188BFF36F8FBFF34F8FDF
:10103000FEE72DE9F84390B10F4616461C460546DB
:10104000B1B1022C20D1EB6B012B1DD04FF050031E
:1010500083F31188BFF36F8FBFF34F8FFEE74FF01D
:10106000500383F31188BFF36F8FBFF34F8FFEE7F9
:10107000036C002BE5D04FF0500383F31188BFF3CE
:101080006F8FBFF34F8FFEE703F07AFAEFF311880B
:101090004FF0500383F31188BFF36F8FBFF34F8F6F
:1010A000AA6BEB6B9A4206D3022C04D0002088F383
:1010B0001188BDE8F88395F845904FFA89F9AB6B34
:1010C000224639462846FFF7D2FCB9F1FF3F06D049
:1010D00009F101035BB285F845300120E7E76B6A4F
:1010E0000BB90120E3E705F1240001F0B9FE18B1C6
:1010F00026B101203060DAE70120D8E70120D6E7E9
:1011000068B170B50C460546036C8BB14FF05003C7
:1011100083F31188BFF36F8FBFF34F8FFEE74FF05C
:10112000500383F31188BFF36F8FBFF34F8FFEE738
:101130000368EBB103F024FAEFF311864FF050038C
:1011400083F31188BFF36F8FBFF34F8FAA6BEB6BE5
:10115000934226D995F845305BB20132AA63B3F1C8
:10116000FF3F11D001335BB285F84530012019E013
:101170008368002BDED04FF0500383F31188BFF358
:101180006F8FBFF34F8FFEE76B6A0BB9012009E049
:1011900005F1240001F064FE38B144B10120206063
:1011A00000E0002086F3118870BD0120FAE70120DD
:1011B000F8E72DE9F843B0B10D4690460446D9B1A1
:1011C00003F0DEF9EFF311874FF0500383F311883A
:1011D000BFF36F8FBFF34F8FA66BCEB9002087F39D
:1011E0001188BDE8F8834FF0500383F31188BFF3F3
:1011F0006F8FBFF34F8FFEE7036C002BE0D04FF0F3
:10120000500383F31188BFF36F8FBFF34F8FFEE757
:1012100094F844904FFA89F929462046FFF762FC7A
:10122000731EA363B9F1FF3F06D009F101035BB25E
:1012300084F844300120D2E723690BB90120CEE7BE
:1012400004F1100001F00CFE30B1B8F1000F05D030
:101250000120C8F80000C2E70120C0E70120BEE776
:1012600018B1836B53B9012070474FF0500383F3DB
:101270001188BFF36F8FBFF34F8FFEE700207047D9
:1012800028B1826BC36B9A420AD0002070474FF09E
:10129000500383F31188BFF36F8FBFF34F8FFEE7C7
:1012A0000120704708B1806B70474FF0500383F303
:1012B0001188BFF36F8FBFF34F8FFEE770B584B017
:1012C000019158B10446036C8BB14FF0500383F386
:1012D0001188BFF36F8FBFF34F8FFEE74FF05003BE
:1012E00083F31188BFF36F8FBFF34F8FFEE701F0D9
:1012F0001DFF054650B9019B5BB14FF0500383F3CE
:101300001188BFF36F8FBFF34F8FFEE7002635467E
:1013100055E0064653E0013BA36323683BB12369D4
:101320004BB903F0E9F80126304604B070BD02F075
:1013300033F8A060F3E704F1100001F091FD0028FC
:10134000EFD04FF0E0234FF08052C3F8042DBFF3ED
:101350004F8FBFF36F8FE4E746B14FF0500383F335
:101360001188BFF36F8FBFF34F8FFEE703F0C4F810
:10137000DAE702A802F01EF801252AE0002384F82B
:10138000443032E0002384F8453034E003F0A0F824
:10139000A06801F0DBFE064603F0AEF83BE0204615
:1013A000FFF721FB01F024FC09E02046FFF71BFBBF
:1013B00001F01EFC2046FFF74DFB002842D103F050
:1013C00087F8A36B002BA6D1019B002BC4D0002D66
:1013D000CFD003F091F801F015F903F079F894F803
:1013E00044305BB2B3F1FF3FC8D094F845305BB2F4
:1013F000B3F1FF3FC6D003F07FF801A902A801F0C6
:10140000E5FF0028D1D12046FFF724FB0028C6D0F5
:101410002368002BBAD0019904F1240001F0DCFC10
:101420002046FFF7E0FA01F0E3FB0028C7D14FF0B8
:10143000E0234FF08052C3F8042DBFF34F8FBFF36A
:101440006F8FBCE70EB900266EE703F041F8204627
:10145000FFF7B2FA0146A06801F028FF03F04CF84C
:10146000F1E70023072B0CD8064A52F833200AB1C3
:101470000133F7E7034A42F8331002EBC30250602E
:1014800070477047000000200023072B0FD8084A40
:1014900002EBC3025268824201D00133F5E7044AED
:1014A000002142F8331002EBC302516070477047CD
:1014B0000000002008B510B1FFF7E6FF08BD4FF0AF
:1014C000500383F31188BFF36F8FBFF34F8FFEE795
:1014D0000023072B0BD8074A02EBC3025268824253
:1014E00001D00133F5E7034A52F83300704700207A
:1014F000704700BF0000002038B5E0B10D4604463B
:1015000002F0E6FF2368E26B216C01FB0230A06071
:101510000020A0636360013A02FB0133E360FF2314
:1015200084F8443084F84530FDB9236963B902F08A
:10153000E3FF012038BD4FF0500383F31188BFF360
:101540006F8FBFF34F8FFEE704F1100001F088FCAE
:101550000028ECD04FF0E0234FF08052C3F8042D68
:10156000BFF34F8FBFF36F8FE1E704F1100002F07C
:10157000B7FE04F1240002F0B3FED8E710B503462D
:1015800002980C4631B90060C36304640121FFF77F
:10159000B3FF10BD0260F7E740B94FF0500383F38B
:1015A0001188BFF36F8FBFF34F8FFEE710B584B084
:1015B0001C46844653B192B189B94FF0500383F36E
:1015C0001188BFF36F8FBFF34F8FFEE74FF05003CB
:1015D00083F31188BFF36F8FBFF34F8FFEE76AB1BC
:1015E00048230393039B482B13D04FF0500383F3FE
:1015F0001188BFF36F8FBFF34F8FFEE70029EFD045
:101600004FF0500383F31188BFF36F8FBFF34F8FF9
:10161000FEE7039B00949DF818306046FFF7AEFF8D
:10162000204604B010BD10B582B00B4600900022D9
:1016300011460120FFF7B0FF0446FFF729FB2046C3
:1016400002B010BD8268436813440068181A8242D1
:1016500000D8801A704742B94FF0500383F31188C5
:10166000BFF36F8FBFF34F8FFEE72DE9F0410446C4
:101670000E461746D0F804808368A3EB0805954210
:1016800028BF154608EB0502934208D24FF05003DD
:1016900083F31188BFF36F8FBFF34F8FFEE780692D
:1016A0002A46404402F09EFAAF4210D97A1BA36842
:1016B0009A4208D94FF0500383F31188BFF36F8F1C
:1016C000BFF34F8FFEE77119A06902F08BFA07EBA9
:1016D0000803A2689A4200D89B1A63603846BDE8A6
:1016E000F08130B583B00546019218466BB10C46C7
:1016F0002B7F13F0010F0AD1904228BF10460190B2
:10170000019A21462846FFF7A6FF03B030BD069B8D
:10171000984201D20020F8E704220DEB020128468E
:10172000FFF799FFECE72DE9F041934228BF1346FC
:101730001C4683B306460F46D0F800808368A3EBAF
:101740000805A54228BF2546AA4208D24FF05003FB
:1017500083F31188BFF36F8FBFF34F8FFEE708EB62
:101760000502934208D24FF0500383F31188BFF370
:101770006F8FBFF34F8FFEE781692A464144384699
:1017800002F030FAAC4209D804EB0803B2689A427E
:1017900000D89B1A33602046BDE8F081621BB16916
:1017A000781902F01FFAEFE72DE9F04383B0054600
:1017B0000F4616461C46DDF82880B8F1000F08D108
:1017C0002346324639462846FFF7ADFF03B0BDE851
:1017D000F083D0F80090424601A9FFF7A4FF019BD7
:1017E000A4EB08049E4203D2C5F800900026E7E768
:1017F0001E46E5E7F8B507460C4616461D46552138
:10180000204602F089FA844208D04FF0500383F357
:101810001188BFF36F8FBFF34F8FFEE720220021A7
:10182000384602F079FABC61BE60FD609DF8183060
:101830003B77F8BD29B32DE9F04383B00446174642
:101840001E46884630B3037F13F0010F2BD04FF0B4
:101850000409002E3ED002F03BFE2046FFF7F2FEC8
:101860000546814525D3002004F0F8F92369EBB142
:101870004FF0500383F31188BFF36F8FBFF34F8F87
:10188000FEE74FF0500383F31188BFF36F8FBFF370
:101890004F8FFEE74FF0500383F31188BFF36F8F34
:1018A000BFF34F8FFEE74FF00009D2E701F032FCA3
:1018B000206102F021FEA94510D3334600221146D3
:1018C000104600F0E3FF002323612046FFF7BAFE35
:1018D000054603E02046FFF7B5FE05464D4504D812
:1018E0000025284603B0BDE8F083CDF800902B46D4
:1018F0003A4641462046FFF757FF05460028F0D0FC
:1019000000F080FE63693BB1606900231A46194606
:1019100000F0A8FE0023636101F06AF9E1E7B9B1C4
:101920002DE9F04182B0044616461D460F46C0B16F
:10193000037F13F0010F1DD04FF004082046FFF77E
:1019400081FE804519D30026304602B0BDE8F08103
:101950004FF0500383F31188BFF36F8FBFF34F8FA6
:10196000FEE74FF0500383F31188BFF36F8FBFF38F
:101970004F8FFEE74FF00008E0E7CDF80080034608
:10198000324639462046FFF70FFF06460028DBD0D7
:10199000EFF311874FF0500383F31188BFF36F8F7C
:1019A000BFF34F8F636943B16069009500231A4606
:1019B000194600F0D5FE0023636187F31188C3E761
:1019C00008B578B1027F12F0020F14D1B0F1FF3FD9
:1019D00015D04FF0500383F31188BFF36F8FBFF31F
:1019E0004F8FFEE74FF0500383F31188BFF36F8FE3
:1019F000BFF34F8FFEE72022002102F08DF908BDD2
:101A000028B10268436893420AD0002070474FF023
:101A1000500383F31188BFF36F8FBFF34F8FFEE73F
:101A20000120704760B110B582B0044602F050FD4D
:101A3000236973B1002402F05FFD204602B010BD9F
:101A40004FF0500383F31188BFF36F8FBFF34F8FB5
:101A5000FEE763690BB10024EDE7237F0093E368A1
:101A6000A268A1692046FFF7C5FE0124E3E703460B
:101A700048B18268006810445B68C01A013882422D
:101A800000D8801A70474FF0500383F31188BFF3DA
:101A90006F8FBFF34F8FFEE72DE9F04186B00393C0
:101AA00099B1044616468846C0B1037F13F0010F72
:101AB0001DD0171DBA421BD34FF0500383F311887A
:101AC000BFF36F8FBFF34F8FFEE74FF0500383F3E9
:101AD0001188BFF36F8FBFF34F8FFEE74FF05003B6
:101AE00083F31188BFF36F8FBFF34F8FFEE7174665
:101AF000039B7BB304A800F0D1FF02F0E9FC204671
:101B0000FFF7B5FF0546874221D9002004F0A6F86B
:101B100063699BB901F0FEFA606102F0EDFC039B82
:101B200000221146104600F0B1FE0023636103A9B4
:101B300004A801F04BFC0028DFD00AE04FF050036E
:101B400083F31188BFF36F8FBFF34F8FFEE702F06F
:101B5000D3FC1DB92046FFF78AFF054600972B46A8
:101B6000324641462046FFF7BCFD054618B92846D7
:101B700006B0BDE8F0812046FFF764FDE3689842B7
:101B8000F5D300F03FFD23693BB1206900231A46DD
:101B9000194600F067FD0023236101F029F8E6E70C
:101BA000F1B12DE9F04182B0044615461E460F46BC
:101BB000F8B1037F13F0010F24D002F1040820468E
:101BC000FFF755FF0346CDF800802A4639462046E8
:101BD000FFF787FD0546B8B9284602B0BDE8F08199
:101BE0004FF0500383F31188BFF36F8FBFF34F8F14
:101BF000FEE74FF0500383F31188BFF36F8FBFF3FD
:101C00004F8FFEE79046DAE72046FFF71BFDE368BB
:101C10009842E1D3EFF311874FF0500383F311881B
:101C2000BFF36F8FBFF34F8F236943B120690096D5
:101C300000231A46194600F093FD0023236187F321
:101C40001188C9E768B110B50346027F12F0010F91
:101C500010D004241846FFF70AFFA0420CD8012038
:101C600010BD4FF0500383F31188BFF36F8FBFF3A4
:101C70004F8FFEE70024EDE70020F1E708B510B133
:101C8000FFF7E0FC08BD4FF0500383F31188BFF36A
:101C90006F8FBFF34F8FFEE7034638B101B90121C3
:101CA0009A688A420BD3D960012070474FF05003E5
:101CB00083F31188BFF36F8FBFF34F8FFEE70020D0
:101CC0007047E0B130B583B00546EFF311844FF0B3
:101CD000500383F31188BFF36F8FBFF34F8F0369F6
:101CE000B3B10069009100231A46194600F038FD8F
:101CF00000232B61012084F3118803B030BD4FF025
:101D0000500383F31188BFF36F8FBFF34F8FFEE74C
:101D10000020F0E7E0B130B583B00546EFF3118461
:101D20004FF0500383F31188BFF36F8FBFF34F8FD2
:101D30004369B3B14069009100231A46194600F087
:101D40000FFD00236B61012084F3118803B030BDC7
:101D50004FF0500383F31188BFF36F8FBFF34F8FA2
:101D6000FEE70020F0E77BB100B585B09C46069BFE
:101D70009BB181421AD94FF0500383F31188BFF30E
:101D80006F8FBFF34F8FFEE74FF0500383F311883F
:101D9000BFF36F8FBFF34F8FFEE74FF0500383F316
:101DA0001188BFF36F8FBFF34F8FFEE701B9012199
:101DB0005AB1032304280AD84FF0500383F3118843
:101DC000BFF36F8FBFF34F8FFEE70223F2E72022AE
:101DD0000392039A202A08D04FF0500383F311880E
:101DE000BFF36F8FBFF34F8FFEE700930B460246A2
:101DF00061460698FFF7FEFC069B1B7F43F002033B
:101E0000069A1377104605B05DF804FB48B130B56B
:101E100083B00446037F13F0010F0BD1002003B001
:101E200030BD4FF0500383F31188BFF36F8FBFF3C2
:101E30004F8FFEE7FFF706FC04280AD80028EED0F3
:101E40004FF0500383F31188BFF36F8FBFF34F8FB1
:101E5000FEE72568034604220DEB02012046FFF74A
:101E600062FC01982560DAE728B1416B0C4A914287
:101E70000AD0002070474FF0500383F31188BFF35E
:101E80006F8FBFF34F8FFEE7836C064A934202D0F9
:101E90001BB100207047002070470120704700BF31
:101EA0006C0000209800002038B5002407E004EB07
:101EB000840293000E48184402F012FA0134062CF2
:101EC000F5D90C4D284602F00BFA0B4C204602F0D7
:101ED00007FA0A4802F004FA094802F001FA094830
:101EE00002F0FEF9084B1D60084B1C6038BD00BFB6
:101EF000DC000020C8000020B40000209800002072
:101F0000840000206C000020B0000020AC00002005
:101F100070B504460D461D4B1E681D4B18682430D5
:101F200002F010FA48B91A4B1B68DB6C01229A4088
:101F300018490B6823EA02030B60B4F1FF3F0DD090
:101F40003444134B1B685C62A64210D9124B1868CC
:101F50000F4B1968243102F0DCF970BD002DEFD071
:101F60000B4B196824310D4802F0C8F9F5E70C4B0A
:101F70001868074B1968243102F0CBF9094B1B682C
:101F8000A342EAD9074B1C60E7E700BF64000020CA
:101F90006801002060000020AC0000206C000020E0
:101FA000B0000020480000202DE9F84F8046174679
:101FB00099460A9D0C9C002D17DB4FF0000B25F075
:101FC0000045266D07F18043013B06EB830626F0B2
:101FD000070600293BD000230F2B09D8CA5CE01864
:101FE00080F8542022B10133F6E74FF0010BE6E709
:101FF000002384F86330062D00D90625E564656664
:102000004FF0000AC4F868A004F1240002F073F94C
:1020100004F1380002F06FF92463C5F10705A563E8
:1020200064643B46226D0D99201DFEF775FBC4F8D4
:102030006CA084F870A05B464A4641463046FEF7E5
:102040003BFB20600B9B03B11C60BDE8F88F0023B5
:1020500084F85430CFE710B5044602F039FA224A2A
:10206000136801331360214B1B685BB1204B1B6865
:102070006BB91E4B1B68DA6CE36C9A4207D81B4B9A
:102080001C6004E0194B1C601368012B29D0194A0D
:10209000136801331360E06C01238340164A116812
:1020A0000B43136000EB800004F12401134B03EB9E
:1020B000800002F023F902F01FFA0D4B1B687BB180
:1020C0000A4B1B68DA6CE36C9A4209D24FF0E023AA
:1020D0004FF08052C3F8042DBFF34F8FBFF36F8FC3
:1020E00010BDFFF7E1FED2E7680000206801002084
:1020F0005C0000204C00002060000020DC0000207C
:1021000008B511E002F0E4F90A4BDB68D868243026
:1021100002F018F9084A1368013B1360074A136874
:10212000013B136002F0E8F9044B1B68002BE9D176
:1021300008BD00BF8400002068000020800000204F
:1021400030B587B00B9C7CB10C9DB5B1742504955E
:10215000049D742D1AD04FF0500383F31188BFF300
:102160006F8FBFF34F8FFEE74FF0500383F311885B
:10217000BFF36F8FBFF34F8FFEE74FF0500383F332
:102180001188BFF36F8FBFF34F8FFEE7049D0C9D47
:102190002C6500240394029505AC01940A9C0094DC
:1021A000FFF702FF0C98FFF756FF059807B030BD08
:1021B0004369BBB110B584B0C46BE4B12365036956
:1021C00000F118020392029401910093C3680289FE
:1021D00041680068FFF7E8FE2046FFF73CFF01205A
:1021E00004B010BD4FF0500383F31188BFF36F8F1D
:1021F000BFF34F8FFEE74FF0500383F31188BFF317
:102200006F8FBFF34F8FFEE710B5044628B1002350
:102210001A46201DFEF780FA10BD014B1C68F6E738
:102220006801002038B5044602F052F9002C32D083
:1022300004F12405284602F085F870B9E26C02EB3F
:1022400082039B002549CB583BB9012303FA02F2D4
:1022500023490B6823EA02030B60A36C1BB104F152
:10226000380002F06FF81F4A1368013313601E4BE9
:102270001B68A34212D01D4A1368013B136003F090
:10228000CBFC02F039F91A4B1B681BB1164B1B68CB
:10229000A3420CD038BD144B1C68C9E72946154829
:1022A00002F02CF8144A136801331360E9E7134B6A
:1022B0001B6843B14FF0500383F31188BFF36F8F56
:1022C000BFF34F8FFEE74FF0E0234FF08052C3F88B
:1022D000042DBFF34F8FBFF36F8FDBE7DC000020CF
:1022E000600000204C0000206801002068000020F1
:1022F0005C000020840000208000002040000020BE
:1023000010B5044602F0E4F824B1E46C02F0F4F8ED
:10231000204610BD014B1C68F7E700BF6801002094
:1023200010B5044602F02CF9EFF311834FF0500280
:1023300082F31188BFF36F8FBFF34F8F1CB1E06C36
:1023400083F3118810BD014A1468F8E76801002082
:10235000F8B5062908D94FF0500383F31188BFF36D
:102360006F8FBFF34F8FFEE705460C4602F0B0F8C3
:1023700075B16B6E9C4230D00DD92C4A1268AA42BE
:102380002ED02A4A1268D26CA2422BD9002707E02D
:10239000264B1D68EDE7254A1268AA4224D0002783
:1023A000EE6CB34222D06C66AB6B002B02DBC4F147
:1023B0000704AC63696B06EB86021D4B03EB8203DB
:1023C000994215D04FB14FF0E0234FF08052C3F83F
:1023D000042DBFF34F8FBFF36F8F02F08DF8F8BD60
:1023E0000027DDE70127DBE70127D9E7EC64DAE71F
:1023F00005F12404204601F0A5FF30B90122B240C6
:102400000C490B6823EA02030B60E86C012383404C
:10241000084A11680B43136000EB80002146044B0F
:1024200003EB800001F06AFFCCE700BF68010020E9
:10243000DC0000206000002038B568B104461D4B68
:102440001B68834207D002F043F82046FFF70CFDDB
:1024500058B902F051F838BD4FF0500383F311889A
:10246000BFF36F8FBFF34F8FFEE704F124052846BB
:1024700001F068FFE06C012383400F4A11680B43B1
:10248000136000EB800029460C4B03EB800001F049
:1024900035FFE26C074B1B68DB6C9A42D9D34FF0D7
:1024A000E0234FF08052C3F8042DBFF34F8FBFF3EA
:1024B0006F8FCEE76801002060000020DC00002064
:1024C000F8B5002833D0054602F05AF8EFF311842E
:1024D0004FF0500383F31188BFF36F8FBFF34F8F1B
:1024E0002846FFF7C1FC0646E8B11A4B1B684BBBF8
:1024F000EA6C194B1B68DB6C9A4221D2002605F16D
:102500002407384601F01EFFE86C01238340134A7C
:1025100011680B43136000EB80003946104B03EB4E
:10252000800001F0EBFE84F311883046F8BD4FF0D7
:10253000500383F31188BFF36F8FBFF34F8FFEE714
:102540000126DCE705F13801064801F0D7FE002638
:10255000E9E700BF40000020680100206000002083
:10256000DC0000209800002010B588B000240594FD
:10257000069407AA06A905A801F026FE059B02936A
:10258000069B01934FF0004300932346079A0E49A0
:102590000E48FFF7D5FD0E4B186090B14FF0500379
:1025A00083F31188BFF36F8FBFF34F8F094B4FF049
:1025B000FF321A60084B01221A60084B1C60FEF7BC
:1025C00080F908B010BD00BF985E0008455C0008A7
:1025D00044000020480000205C000020640000202F
:1025E00008B54FF0500383F31188BFF36F8FBFF32B
:1025F0004F8F034B00221A60FEF77CF808BD00BF26
:102600005C000020024A136801331360704700BF6A
:1026100040000020014B1868704700BF6400002094
:1026200008B501F0ADFF014B186808BD640000203B
:10263000014B1868704700BF68000020034610B1C6
:1026400003F154007047064B1B68002BF8D14FF084
:10265000500383F31188BFF36F8FBFF34F8FFEE7F3
:1026600068010020F8B5A8B10E4614461D4607467D
:1026700001F02EFF0DB1FB6E2B6097F87030DBB2CE
:10268000022287F87020042C21D8DFE804F00F0C18
:10269000161A1C004FF0500383F31188BFF36F8F9D
:1026A000BFF34F8FFEE7FA6E3243FA66012B1BD061
:1026B000012401F021FF2046F8BDFA6E0132FA66CE
:1026C000F4E7FE66F2E7022B3FD0FE66EEE7FA6E15
:1026D000B2F1FF3FEAD04FF0500383F31188BFF30C
:1026E0006F8FBFF34F8FFEE707F12404204601F000
:1026F00029FEF86C01238340164A11680B431360CE
:1027000000EB80002146144B03EB800001F0F6FD46
:10271000BB6C43B14FF0500383F31188BFF36F8F4D
:10272000BFF34F8FFEE7FA6C0C4B1B68DB6C9A42D1
:102730000DD94FF0E0234FF08052C3F8042DBFF3C2
:102740004F8FBFF36F8F0124B3E70024B1E701245B
:10275000AFE700BF60000020DC000020680100201F
:1027600010B32DE9F0410E4614461D46074601F010
:1027700007FFEFF311834FF0500282F31188BFF38C
:102780006F8FBFF34F8F98460DB1FB6E2B6097F89C
:102790007030DBB2022287F87020042C21D8DFE8E9
:1027A00004F00F0C161A1C004FF0500383F311882D
:1027B000BFF36F8FBFF34F8FFEE7FA6E3243FA66B7
:1027C000012B1BD0012088F31188BDE8F081FA6E3F
:1027D0000132FA66F4E7FE66F2E7022B45D0FE66A8
:1027E000EEE7FA6EB2F1FF3FEAD04FF0500383F309
:1027F0001188BFF36F8FBFF34F8FFEE7BB6C43B100
:102800004FF0500383F31188BFF36F8FBFF34F8FE7
:10281000FEE7184B1B6813BB07F12404204601F0A8
:1028200091FDF86C01238340134A11680B43136038
:1028300000EB80002146114B03EB800001F05EFDB0
:10284000FA6C0F4B1B68DB6C9A4210D9069B13B1D4
:102850000123069A136001200A4B1860B3E707F1C1
:102860003801094801F04AFDEAE70020ABE7012002
:10287000A9E700BF4000002060000020DC0000202D
:10288000680100205400002098000020F8B506469A
:102890000F4614461D4601F01BFE214B1B6893F8A2
:1028A0007020D2B2022A0AD01D4A1168CB6E23EAE8
:1028B0000603CB661368012283F87020CDB901F0BE
:1028C0001BFE01F005FE1CB1154B1B68DB6E23607F
:1028D000134B1B6893F87030DBB2022B18D0002426
:1028E0000F4B1B68002283F8702001F005FE204684
:1028F000F8BD11462846FFF70BFB4FF0E0234FF0E1
:102900008052C3F8042DBFF34F8FBFF36F8FD6E70C
:10291000034B1A68D36E23EA0703D3660124DFE76B
:1029200068010020F8B5E0B10D46044601F028FE2C
:10293000EFF311834FF0500282F31188BFF36F8FD2
:10294000BFF34F8F1E4694F87030DBB2022284F83A
:102950007020E26E0132E266012B0BD086F3118803
:10296000F8BD4FF0500383F31188BFF36F8FBFF3AF
:102970004F8FFEE7A36C43B14FF0500383F31188F0
:10298000BFF36F8FBFF34F8FFEE7154B1B6803BB81
:1029900004F12407384601F0D5FCE06C01238340A4
:1029A000104A11680B43136000EB800039460E4B50
:1029B00003EB800001F0A2FCE26C0C4B1B68DB6CAB
:1029C0009A42CBD90DB101232B60094B01221A6029
:1029D000C4E704F13801074801F090FCECE700BFC0
:1029E0004000002060000020DC0000206801002082
:1029F000540000209800002038B505460C4601F030
:102A000067FD1A4B1B68DB6E2BB9184B1B68012244
:102A100083F87020ACB901F06FFD01F059FD134B44
:102A20001B68DC6E24B1DDB1104B1B680022DA6636
:102A30000E4B1B68002283F8702001F05DFD2046DC
:102A400038BD11462046FFF763FA4FF0E0234FF000
:102A50008052C3F8042DBFF34F8FBFF36F8FDAE7B7
:102A6000024B1B68621EDA66E2E700BF68010020C5
:102A700070B50C46054660B101F02AFD064B1B6897
:102A8000DE6EEB6E23EA0403EB6601F035FD3046A3
:102A900070BD014B1D68EFE76801002060B110B503
:102AA000044601F015FD094B1B682360084B1B68A9
:102AB000636001F021FD10BD4FF0500383F31188D6
:102AC000BFF36F8FBFF34F8FFEE700BF50000020B2
:102AD00064000020F8B53B4B1B68002B6AD13A4BD1
:102AE0001D6801351D60C5B9384B1B681B6843B1B3
:102AF0004FF0500383F31188BFF36F8FBFF34F8FF5
:102B0000FEE7324A1168324B186810601960314A8A
:102B100013680133136003F07FF82F4B1B68AB423F
:102B20003ED900272D4B1B68DB6C03EB83039A0017
:102B30002B4B9B58012B00D901272A4B1B68002BDC
:102B40003DD001273BE00127204B1B681B684BB39E
:102B50001E4B1B68DB68DC68636A9D4227D304F167
:102B60002406304601F0EEFBA36C1BB104F13800E3
:102B700001F0E8FBE36C01229A401B49086802431C
:102B80000A6003EB83039A0031461548104401F0B4
:102B9000B5FBE26C114B1B68DB6C9A42D3D2D3E7D6
:102BA0000027D1E70C4B4FF0FF321A60BAE70A4A10
:102BB0001360B7E70D4A13680133136000273846E6
:102BC000F8BD00BF4000002064000020B0000020DD
:102BD000AC000020500000204800002068010020C8
:102BE000DC0000205400002060000020580000207D
:102BF00038B5354B1B6843B94FF0500383F3118848
:102C0000BFF36F8FBFF34F8FFEE701F061FC2E4BD8
:102C10001A68013A1A601B68002B50D12B4B1B68B5
:102C20000BB900244CE00024294B1B6823B3284B2C
:102C3000DB68DC6804F1380001F084FB04F1240552
:102C4000284601F07FFBE06C01238340214A116894
:102C50000B43136000EB800029461F4B03EB800001
:102C600001F04CFBE26C1D4B1B68DB6C9A42DBD322
:102C70001B4B01221A60D7E70CB102F0CDFF194BB4
:102C80001C6884B9164B1C68D4B14FF0E0234FF098
:102C90008052C3F8042DBFF34F8FBFF36F8F012411
:102CA0000EE0013C07D0FFF715FF0028F9D00C4BD0
:102CB00001221A60F5E70B4B00221A60E2E70024BC
:102CC00001F01AFC204638BD4000002068000020BA
:102CD0009800002060000020DC0000206801002037
:102CE000540000205800002010B5A8B10446104B35
:102CF0001B6843B14FF0500383F31188BFF36F8F0C
:102D0000BFF34F8FFEE7FFF77DFC00212046FFF762
:102D1000FFF8FFF76DFF48B94FF0E0234FF0805206
:102D2000C3F8042DBFF34F8FBFF36F8F10BD00BFEB
:102D30004000002038B558B10C46054689B94FF01F
:102D4000500383F31188BFF36F8FBFF34F8FFEE7FC
:102D50004FF0500383F31188BFF36F8FBFF34F8F92
:102D6000FEE71B4B1B6843B14FF0500383F3118800
:102D7000BFF36F8FBFF34F8FFEE7FFF743FC154B99
:102D800018682B681C44834209D9A34201D82C60DF
:102D90000EE0A04201D32C600AE02C6004E0A342C4
:102DA00001D8A04212D22C600021201AFFF7B0F8FF
:102DB000FFF71EFF48B94FF0E0234FF08052C3F8F1
:102DC000042DBFF34F8FBFF36F8F38BD2C60EFE73B
:102DD000400000206400002058B110B50C46094A9C
:102DE0001168383101F095FA01212046FFF790F87B
:102DF00010BD4FF0500383F31188BFF36F8FBFF303
:102E00004F8FFEE76801002070B110B514460246EE
:102E1000114B1B688BB94FF0500383F31188BFF33C
:102E20006F8FBFF34F8FFEE74FF0500383F311888E
:102E3000BFF36F8FBFF34F8FFEE7084B186841F069
:102E40000041816319683831104601F057FA0121B9
:102E50002046FFF75DF810BD40000020680100200B
:102E600038B5C368DC682CB304F13805284601F096
:102E700069FA184B1B6833BB04F12405284601F09E
:102E800061FAE06C01238340134A11680B4313601D
:102E900000EB80002946114B03EB800001F02EFA75
:102EA000E26C0F4B1B68DB6C9A4211D901200D4B71
:102EB000186038BD4FF0500383F31188BFF36F8F54
:102EC000BFF34F8FFEE72946074801F017FAE7E7FF
:102ED0000020EEE74000002060000020DC00002021
:102EE00068010020540000209800002038B51D4BD8
:102EF0001B6843B94FF0500383F31188BFF36F8F02
:102F0000BFF34F8FFEE741F000410160C468FCB1A0
:102F100001F018FA04F12405284601F013FAE06CD8
:102F200001238340104A11680B43136000EB8000BB
:102F300029460E4B03EB800001F0E0F9E26C0C4BEC
:102F40001B68DB6C9A4202D90A4B01221A6038BD19
:102F50004FF0500383F31188BFF36F8FBFF34F8F90
:102F6000FEE700BF4000002060000020DC000020E1
:102F70006801002054000020204B1B681BB1204B2F
:102F800001221A6070471E4B00221A601D4B1B68FD
:102F9000B3FA83F3DBB2C3F11F0303EB83018A00AF
:102FA00019498A5842B94FF0500383F31188BFF38F
:102FB0006F8FBFF34F8FFEE7134803EB83018A0047
:102FC000024451684968516003EB830C4FEA8C025C
:102FD00008320244914209D003EB83039A000A4B62
:102FE00013445B68DA68094B1A60704748686246A8
:102FF0009100054A0A445060EEE700BF40000020FF
:103000005400002060000020DC0000206801002047
:1030100038B5044601F05CFA6CB304F12405284687
:1030200001F090F970B9E26C02EB82039B002C492D
:10303000CB583BB9012303FA02F22A490B6823EA71
:1030400002030B60A36C1BB104F1380001F07AF9A4
:103050002946254801F052F994F87030DBB2012B73
:103060000CD001F049FA214B1B685BB9204B1B685F
:10307000A3420ED038BD1E4B1C68CEE7002384F857
:103080007030EEE701F024FA02F0C6FD01F034FAE8
:10309000ECE7164B1B68B3B1164B1B6843B14FF0FE
:1030A000500383F31188BFF36F8FBFF34F8FFEE799
:1030B0004FF0E0234FF08052C3F8042DBFF34F8F41
:1030C000BFF36F8FD6E7084B1A680B4B1B689A4209
:1030D00003D1074B00221A60CCE7FFF74DFFC9E789
:1030E000DC000020600000206C0000205C0000205C
:1030F000680100204000002068000020044A136896
:10310000986B1368DB6C1268C3F107039363704715
:1031100068010020014B1868704700BF680100205B
:10312000014B01221A60704754000020054B1B68B8
:1031300033B1054B1B680BB100207047022070476C
:10314000012070475C00002040000020002849D08A
:1031500038B50446C36C254A1268D26C934239D202
:10316000826B002A05DB214A1268D26CC2F1070289
:103170008263616B03EB83031D4A02EB8303994275
:1031800005D01A4B1B68DB6CE364012038BD04F1E9
:103190002405284601F0D6F838B9E36C01229A409C
:1031A00014490B6823EA02030B60104B1B68D86CB0
:1031B000E064012404FA00F30E4A11680B43136023
:1031C00000EB800029460A4B03EB800001F096F8E3
:1031D0002046DBE7426E054B1B68DB6C9A4203D34B
:1031E0000020D3E7002070470120CFE768010020CE
:1031F000DC0000206000002000284CD038B50446D8
:10320000274B1B68834208D04FF0500383F311888B
:10321000BFF36F8FBFF34F8FFEE7836E43B94FF05D
:10322000500383F31188BFF36F8FBFF34F8FFEE717
:10323000013B8366C16C426E91422ED00BB10020DF
:1032400038BD00F12405284601F07CF868B9E36C2C
:1032500003EB8302920013498A5832B901229A4043
:1032600011490B6823EA02030B60606EE064C0F151
:103270000703A363012404FA00F30B4A11680B430C
:10328000136000EB80002946064B03EB800001F041
:1032900035F82046D4E7002070470020D0E700BF73
:1032A00068010020DC00002060000020002850D0D1
:1032B00038B50446836E43B94FF0500383F3118849
:1032C000BFF36F8FBFF34F8FFEE7426E8A4200D28B
:1032D0000A46E16C914201D0012B00D038BD1D4B54
:1032E0001B68A3422CD0E264A36B002B02DBC2F16B
:1032F0000702A263626B01EB8101174B03EB8103B1
:103300009A42EBD104F12405284601F01BF838B9A4
:10331000E36C01229A4011490B6823EA02030B6017
:10332000E06C012383400D4A11680B43136000EBEE
:1033300080002946084B03EB800000F0DFFFCDE75B
:103340004FF0500383F31188BFF36F8FBFF34F8F9C
:10335000FEE7704768010020DC00002060000020CC
:103360000B4B1B6843B14FF0500383F31188BFF33D
:103370006F8FBFF34F8FFEE710B50446FFF742F99A
:10338000044A136823441360FFF732FC10BD00BFEA
:103390004000002058000020054B1B6823B1044B5F
:1033A0001A68936E01339366014B1868704700BF2B
:1033B00068010020034B1B680360034B1B684360DC
:1033C000704700BF5000002064000020F8B5C8B16D
:1033D0000C460546F9B101F07BF81B4B19686B6888
:1033E000C81A2268B2F1FF3F26D0184E36682F68FF
:1033F000B74201D08B4224D9824215D800232360E2
:1034000001241AE04FF0500383F31188BFF36F8F4C
:10341000BFF34F8FFEE74FF0500383F31188BFF3E4
:103420006F8FBFF34F8FFEE75B1A1344236028466C
:10343000FFF7C0FF002400E0002401F05DF8204603
:10344000F8BD0124F9E700BF64000020500000200F
:1034500008B501F085F8012800D002DF08BD2DE98C
:10346000F04184B004460E4617469846FFF7F0FF39
:1034700005460C9B02930B9B01930A9B00934346CA
:103480003A4631462046FEF75BFE0446284601F0E8
:103490000DF8204604B0BDE8F08170B504460E4634
:1034A000FFF7D6FF054631462046FEF781FE04466B
:1034B000284600F0FBFF204670BD70B505460E465D
:1034C000FFF7C6FF044631462846FEF79DFE20461C
:1034D00000F0ECFF70BD38B50546FFF7B9FF0446B4
:1034E0002846FEF79FFE204600F0E0FF38BD38B5C5
:1034F0000546FFF7ADFF04462846FFF7F5FB2046DB
:1035000000F0D4FF38BD70B505460E46FFF7A0FFAA
:10351000044631462846FFF70DFC204600F0C6FF62
:1035200070BD38B50446FFF793FF05462046FEF709
:10353000E7FE0446284600F0B9FF204638BD70B5C6
:1035400005460E46FFF784FF044631462846FEF73F
:10355000FFFE204600F0AAFF70BD38B50546FFF714
:1035600077FF04462846FFF753FD204600F09EFFF4
:1035700038BD38B50546FFF76BFF04462846FEF711
:103580005BFF204600F092FF38BD10B5FFF760FFEB
:103590000446FFF737F8204600F088FF10BD38B525
:1035A000FFF756FF0546FFF723FB0446284600F0C9
:1035B0007DFF204638BD38B5FFF74AFF0546FFF7C7
:1035C00029F80446284600F071FF204638BD38B57A
:1035D000FFF73EFF0546FFF72BF80446284600F0AC
:1035E00065FF204638BD38B50446FFF731FF054674
:1035F0002046FFF723F80446284600F057FF2046F0
:1036000038BD2DE9F04104460E4617469846FFF7AF
:103610001FFF054643463A4631462046FFF722F84B
:103620000446284600F042FF2046BDE8F0812DE91F
:10363000F04104460E4617469846FFF709FF054637
:1036400043463A4631462046FFF720F904462846CD
:1036500000F02CFF2046BDE8F08170B504460E4610
:10366000FFF7F6FE054631462046FFF7C5F904464A
:10367000284600F01BFF204670BD38B50446FFF712
:10368000E7FE0546204602F0E9FA0446284600F027
:103690000DFF204638BD70B504460E46FFF7D8FE34
:1036A000054631462046FFF7E3F90446284600F078
:1036B000FDFE204670BD38B50546FFF7C9FE04463D
:1036C0002846FFF7EBF9204600F0F0FE38BD70B554
:1036D00004460E46FFF7BCFE054631462046FFF77E
:1036E00075FE0446284600F0E1FE204670BD38B560
:1036F000FFF7AEFE0546FFF719FD0446284600F029
:10370000D5FE204638BD38B50446FFF7A1FE054674
:103710002046FFF725FE0446284600F0C7FE204657
:1037200038BD2DE9F04104460E4617469846FFF78E
:103730008FFE054643463A4631462046FDF7E4F9FA
:103740000446284600F0B2FE2046BDE8F081F8B5F8
:1037500004460E461746FFF77BFE05463A463146BD
:103760002046FDF78FFB0446284600F09FFE2046CA
:10377000F8BDF8B504460E461746FFF769FE054644
:103780003A4631462046FDF78FFA0446284600F0B7
:103790008DFE2046F8BD70B504460E46FFF758FE74
:1037A000054631462046FDF789FD0446284600F0CF
:1037B0007DFE204670BD38B50446FFF749FE05463C
:1037C0002046FDF70EFC0446284600F06FFE20461A
:1037D00038BD38B50446FFF73BFE05462046FDF7E9
:1037E00013FC0446284600F061FE204638BD38B57B
:1037F0000546FFF72DFE04462846FDF75BFE2046F2
:1038000000F054FE38BD70B504460E46FFF720FEAA
:10381000054631462046FDF706FF0446284600F0DF
:1038200045FE204670BD70B505460E46FFF710FEFA
:10383000044631462846FDF714FE204600F036FEC9
:1038400070BD38B50546FFF703FE04462846FDF770
:103850001BFE204600F02AFE38BD38B50446FFF7AF
:10386000F7FD05462046FDF733FE0446284600F0E6
:103870001DFE204638BD2DE9F04182B004460E46BB
:1038800017469846FFF7E4FD05469DF82030009363
:1038900043463A4631462046FDF77EFE044628461A
:1038A00000F004FE204602B0BDE8F08170B5044689
:1038B0000E46FFF7CDFD054631462046FDF71CFEBE
:1038C0000446284600F0F2FD204670BD38B5044697
:1038D000FFF7BEFD05462046FCF76BFC0446284674
:1038E00000F0E4FD204638BD2DE9F04182B00446E9
:1038F0000E4617469846FFF7ABFD0546089B00931A
:1039000043463A4631462046FCF776FC04462846B4
:1039100000F0CCFD204602B0BDE8F08170B5044651
:103920000E46FFF795FD054631462046FCF7E9FCBB
:103930000446284600F0BAFD204670BD70B5044626
:103940000E46FFF785FD054631462046FCF7FCFC98
:103950000446284600F0AAFD204670BD2DE9F0413E
:1039600004460E4617469846FFF772FD0546434645
:103970003A4631462046FCF72EFD0446284600F024
:1039800095FD2046BDE8F08138B50546FFF760FD9E
:1039900004462846FCF799FD204600F087FD38BD17
:1039A0002DE9F04104460E4617469846FFF750FDB4
:1039B000054643463A4631462046FEF76DF8044632
:1039C000284600F073FD2046BDE8F0812DE9F04166
:1039D00004460E4617469846FFF73AFD054643460D
:1039E0003A4631462046FDF725FF0446284600F0BA
:1039F0005DFD2046BDE8F08138B50446FFF728FD9F
:103A000005462046FEF702FA0446284600F04EFD21
:103A1000204638BD38B50546FFF71AFD044628464E
:103A2000FDF7CEFF204600F041FD38BD38B5044615
:103A3000FFF70EFD05462046FEF704F9044628462A
:103A400000F034FD204638BD38B50446FFF700FDD0
:103A500005462046FDF7D4FF0446284600F026FD23
:103A6000204638BD38B50446FFF7F2FC054620462F
:103A7000FDF7D8FF0446284600F018FD204638BD63
:103A800038B50446FFF7E4FC05462046FDF7EFFF96
:103A90000446284600F00AFD204638BD38B50446E5
:103AA000FFF7D6FC05462046FEF7E8F80446284610
:103AB00000F0FCFC204638BD70B504460E46FFF70A
:103AC000C7FC054631462046FEF7E6F80446284680
:103AD00000F0ECFC204670BD2DE9F04182B00446B8
:103AE0000E4617469846FFF7B3FC0546089B009321
:103AF00043463A4631462046FEF735F90446284605
:103B000000F0D4FC204602B0BDE8F0810348044B2D
:103B1000834202D0034B03B118477047FC010020D9
:103B2000FC010020000000000548064B1B1AD90FBD
:103B300001EBA301491002D0034B03B118477047B2
:103B4000FC010020FC0100200000000010B5064C24
:103B5000237843B9FFF7DAFF044B13B10448AFF3FE
:103B600000800123237010BD00040020000000002D
:103B7000285E000808B5044B1BB104490448AFF3A4
:103B80000080BDE80840CFE70000000004040020EA
:103B9000285E000870B50F4B0F4DAB42A3EB050636
:103BA00007D0B610002455F8043B01349847A642CC
:103BB000F9D802F039F9094D094B5E1BAB424FEAC7
:103BC000A60606D0002455F8043B01349847A642C7
:103BD000F9D870BDA85E0008A85E0008A85E0008BD
:103BE000AC5E0008844641EA000313F003036DD184
:103BF000403A41D351F8043B40F8043B51F8043BB0
:103C000040F8043B51F8043B40F8043B51F8043BB6
:103C100040F8043B51F8043B40F8043B51F8043BA6
:103C200040F8043B51F8043B40F8043B51F8043B96
:103C300040F8043B51F8043B40F8043B51F8043B86
:103C400040F8043B51F8043B40F8043B51F8043B76
:103C500040F8043B51F8043B40F8043B51F8043B66
:103C600040F8043B51F8043B40F8043B51F8043B56
:103C700040F8043B403ABDD2303211D351F8043BF6
:103C800040F8043B51F8043B40F8043B51F8043B36
:103C900040F8043B51F8043B40F8043B103AEDD2A5
:103CA0000C3205D351F8043B40F8043B043AF9D2F6
:103CB000043208D0D2071CBF11F8013B00F8013BC9
:103CC00001D30B8803806046704700BF082A13D3D6
:103CD0008B078DD010F003038AD0C3F10403D21AEE
:103CE000DB071CBF11F8013B00F8013B80D331F822
:103CF000023B20F8023B7BE7043AD9D3013A11F8A2
:103D0000013B00F8013BF9D20B7803704B7843700C
:103D10008B78837060467047830730B547D0541E58
:103D2000002A3ED0CAB2034601E0013C39D303F871
:103D3000012B9D07F9D1032C2CD9CDB205EB05251C
:103D40000F2C05EB054535D9A4F1100222F00F0C1C
:103D500003F1100EE6444FEA121C1A461560556036
:103D60009560D56010327245F8D10CF1010214F063
:103D70000C0F03EB021204F00F0C13D0ACF1040390
:103D800023F003030433134442F8045B9A42FBD14B
:103D90000CF003042CB1C9B21C4403F8011B9C4273
:103DA000FBD130BD64461346002CF4D1F9E703463D
:103DB0001446C0E71A46A446E0E700BF53B94AB923
:103DC000002908BF00281CBF4FF0FF314FF0FF3023
:103DD00000F06AB9ADF1080C6DE904CE00F006F808
:103DE000DDF804E0DDE9022304B070472DE9F04777
:103DF000089D0C46002B4ED194468C458646B2FA5F
:103E000082F262D94AB1C2F12003914020FA03F351
:103E10000CFA02FC194300FA02FE4FEA1C471FFA93
:103E20008CF6B1FBF7F44FEA1E4307FB141143EA8B
:103E3000014304FB06F199420AD91CEB030304F188
:103E4000FF3080F01381994240F21081023C6344BC
:103E5000591A1FFA8EF3B1FBF7F007FB101143EA72
:103E6000014300FB06F69E420AD91CEB030300F156
:103E7000FF3180F0FD809E4240F2FA8063440238B8
:103E80009B1B40EA044000211DB1D3400022C5E93C
:103E90000032BDE8F0878B4205D90DB1C5E90001BC
:103EA00000210846F5E7B3FA83F1002946D1A34281
:103EB00002D39042C0F0F180861A64EB0303012024
:103EC000002DE6D0C5E90063E3E7002A40F09180C9
:103ED000A1EB0C044FEA1C481FFA8CF70121B4FB3C
:103EE000F8F64FEA1E4308FB164443EA044307FB77
:103EF00006F0984208D91CEB030306F1FF3402D206
:103F0000984200F2CE8026461C1A1FFA8EF3B4FBAC
:103F1000F8F008FB104443EA044300FB07F79F4214
:103F200008D91CEB030300F1FF3402D29F4200F2D8
:103F3000B1802046DB1B40EA0640A5E7C1F1200620
:103F40008B4022FA06F71F4320FA06FC04FA01F31D
:103F500043EA0C03F44000FA01F8380C4FEA134925
:103F6000B4FBF0FE1FFA87FC00FB1E4449EA044440
:103F70000EFB0CF9A14502FA01F20AD93C190EF127
:103F8000FF3A80F08580A14540F28280AEF1020EBA
:103F90003C44A4EB09041FFA83F9B4FBF0F300FBE3
:103FA000134449EA044403FB0CFCA44507D93C191B
:103FB00003F1FF3068D2A44566D9023B3C4443EA92
:103FC0000E40A0FB0293A4EB0C049C42CE469C4600
:103FD00052D34FD055B1B8EB0E0364EB0C0404FA86
:103FE00006F6CB40CC401E43C5E900640021BDE885
:103FF000F087C2F1200320FA03F10CFA02FC24FA44
:1040000003F394400C434FEA1C4800FA02FE1FFAE7
:104010008CF7B3FBF8F008FB1031230C43EA0143A3
:1040200000FB07F1994208D91CEB030300F1FF36AE
:104030002CD299422AD9023863445B1AA4B2B3FB4A
:10404000F8F108FB113344EA034401FB07F3A342F0
:1040500008D91CEB040401F1FF3613D2A34211D995
:1040600002396444E41A41EA004138E70446EFE6C5
:10407000084605E7C845ADD2B9EB020E63EB070C65
:104080000138A7E73146EDE7034698E73046D4E725
:10409000D6467EE7634402384CE706462346084688
:1040A0000EE7023E63442FE7704700BF00B585B0BE
:1040B000002300930193029303931748174A026069
:1040C0004FF48032426083600361037680F82030D1
:1040D0004FF08052C2624FF000628262C3600122E0
:1040E000C26180F83030436100F03EFB68B90C4B90
:1040F000009301230193002302936946064800F0D0
:1041000003FC28B905B05DF804FB00F057F9EEE7B1
:1041100000F054F9F6E700BF1C0400200020014025
:104120001200001002680E4B9A4200D0704700B592
:1041300083B00022019203F58C33596C41F48071F5
:1041400059645B6C03F480730193019B0521122079
:1041500000F006FD122000F013FD03B05DF804FB33
:1041600000200140842801D00330704700207047B0
:1041700008B5FEF7F9F9002008BD2DE9F04184B03B
:1041800004460D4646680768D0F81080B0F908006C
:10419000FFF7E8FF6369A2690292019300902B4642
:1041A000424639463046FFF75AF904B0BDE8F0817F
:1041B00008B500B90120FFF79AF9002008BD08B53D
:1041C0000120FFF7F5FFFBE7034B0360034B0B6098
:1041D0004FF480731360704764080020640400206B
:1041E00010B588B00DF1040C074C0FCCACE80F00F3
:1041F00094E807008CE80700002101A8FFF7BDFF45
:10420000024B186008B010BD405E00084C0B002047
:1042100030B58BB000240594069407940894099453
:104220000194224B1A6B42F004021A631A6B02F0DB
:1042300004020192019A02941A6B42F080021A63FE
:104240001A6B02F080020292029A03941A6B42F0F7
:1042500001021A631A6B02F001020392039A04949A
:104260001A6B42F002021A631B6B03F00203049301
:10427000049B0F4D22462021284600F069FD4FF493
:10428000005305934FF404130693079405A90948B6
:1042900000F07AFC202305930123069307940894E9
:1042A00005A9284600F070FC0BB030BD0038024074
:1042B000000002400008024008B50748074B0360B1
:1042C000032343601823836000F051FD00B908BD4B
:1042D00000F074F8FBE700BF500B002000300040F6
:1042E00000F1080343604FF0FF328260C360036156
:1042F00000230360704700230361704743684B60ED
:104300009A688A60516099600861036801330360AC
:10431000704730B40D68B5F1FF3F11D000F10803CC
:104320001C465B681A68AA42FAD963684B609960B8
:104330008C606160086103680133036030BC7047C2
:104340000469F2E70369416882688A6041685160E4
:104350005A68824206D0002202611A68013A1A6045
:104360001868704782685A60F5E7000008B5202198
:10437000034800F0F3FC4FF4FA70FFF7B8F8F6E7E3
:104380000000024000B583B0FFF715F90190044822
:1043900000F01BFD142101A8FFF7B5F8F4E700BFFA
:1043A000500B002008B50268034B9A4200D008BDAC
:1043B00000F02EF9FBE700BF0000014072B6FEE7F7
:1043C00000B595B03022002108A8FFF7A5FC002316
:1043D000039304930593069307930193204A116C6A
:1043E00041F080511164126C02F080520192019AE6
:1043F00002931C4B1A6842F440421A601B6803F493
:1044000040430293029B092308934FF4A02309938E
:1044100001230D9302230E934FF480020F92082282
:104420001092C822119212930423139308A800F04B
:10443000F5FC88B90F23039302230493002305930B
:104440004FF4805206920793032103A800F050FF17
:1044500020B915B05DF804FBFFF7B0FFFFF7AEFF22
:10446000003802400070004008B500F0B7F8FFF7D0
:10447000A7FFFFF7CDFE01F05BFCFFF717FEFFF78C
:104480001BFF01F005FC00210648FDF791FE00210D
:104490000548FDF78DFEFEF767F8FFF7A1FEFFF771
:1044A00067FEFEE7AC0100206C010020012800D16E
:1044B000704708B500F05CF808BD0000DFF80C009C
:1044C000016841F4700101607047000088ED00E070
:1044D00008B5FEF7BDFF4FF0500383F31188BFF31B
:1044E0006F8FBFF34F8F034A136801331360FFF7D9
:1044F000DDFF08BDEC01002008B5FEF7A9FF0A4B5F
:104500001B6843B94FF0500383F31188BFF36F8FDB
:10451000BFF34F8FFEE7013B034A13600BB983F3F0
:104520001188FFF7C3FF08BDEC0100204FF0E02227
:10453000002313619361054B1B680549A1FB03131D
:104540009B09013B5361072313617047F801002069
:10455000D34D6210000000000000000000000000C9
:10456000EFF3148010F0010F14BF002001207047FA
:10457000EFF3148040F0010080F3148870470000CE
:10458000EFF305830F2B0FD9114A9B5CDBB2114A65
:1045900012789A4208D94FF0500383F31188BFF381
:1045A0006F8FBFF34F8FFEE74FF0E023D3F80C3D42
:1045B00003F4E063084A1268934208D94FF05003AD
:1045C00083F31188BFF36F8FBFF34F8FFEE7704700
:1045D000F0E300E0041800200018002008B50B4BA1
:1045E0001A6842F400721A601A6842F480621A6013
:1045F0001A6842F480721A60032000F09FFA0F20BC
:1046000001F0D4F900F0E8FB002008BD003C0240B6
:10461000034A1168034B1B780B441360704700BFBB
:1046200008180020F0010020014B1868704700BFF7
:10463000081800204A4B5A6822F440325A605A68DF
:1046400041680A435A600268536823F480735360D8
:1046500002685368016943EA0123536002685368A2
:1046600023F0407353600268536881680B435360C2
:104670000268936823F40063936002689368C168DA
:104680000B439360826A374B9A4257D00268936813
:1046900023F07063936002689368816A0B439360B0
:1046A0000268936823F04053936002689368C16A7C
:1046B0000B4393600268936823F0020393600268DF
:1046C0009368017E43EA4103936090F82030002B09
:1046D0003FD00268536843F4006353600268536834
:1046E00023F46043536001684B68426A013A43EA2D
:1046F00042334B600268D36A23F47003D3620168CB
:10470000CB6AC269013A43EA0253CB6202689368FA
:1047100023F4007393600268936890F8301043EAC2
:10472000412393600268936823F480639360026876
:104730009368416943EA81239360704702689368F4
:1047400023F0706393600268936823F04053936092
:10475000B0E70268536823F400635360CAE700BF00
:10476000002301400100000F38B310B50446036C6C
:1047700043B1236C13F0100F0BD00120002384F8F9
:104780003C3010BDFFF7CEFC0023636484F83C305E
:10479000EFE7236C23F4885323F0020343F0020372
:1047A00023642046FFF746FF00206064236C23F05B
:1047B000030343F001032364E0E7012070477047DF
:1047C0007047704770B5044603681E685D6816F050
:1047D000020F2FD005F0200262B3026C12F0100F0E
:1047E00003D1026C42F4007202649A6812F0405FD6
:1047F00019D1227EBAB9DA6A12F4700F03D09A681E
:1048000012F4806F0FD15A6822F020025A60236C94
:1048100023F480732364236C13F4805F03D1236C2F
:1048200043F0010323642046FFF7C9FF23686FF0BC
:1048300012021A6005F0800316F0040F37D0002B27
:1048400035D0236C13F0100F03D1236C43F40053C5
:10485000236423689A6812F4401F21D19A6B12F4E2
:10486000401F03D09A6812F4806F19D15A6812F46D
:10487000806F15D19A6812F0405F11D1227E7AB90B
:104880005A6822F080025A60236C23F48053236418
:10489000236C13F4807F03D1236C43F00103236462
:1048A000204600F007F923686FF00C021A6005F04B
:1048B000400316F0010F05D023B123681B6813F0E5
:1048C000010F06D105F0806516F0200F00D065B904
:1048D00070BD236C43F4803323642046FFF770FFE0
:1048E00023686FF001021A60ECE7636C43F0020387
:1048F000636423686FF020051D602046FFF761FFA9
:1049000023681D60E4E7000030B482B00022019209
:1049100090F83C20012A00F0C0800346012280F874
:104920003C200A68092A40D90468E06892B202EB88
:1049300042021E3A4FF0070C0CFA02F220EA020281
:10494000E2601C68E0680A8802EB42021E3A8D6849
:1049500005FA02F20243E2604A68062A3CD81C6863
:10496000606B02EB8202053A4FF01F0C0CFA02F268
:1049700020EA020262631C68606B4A6802EB8202F2
:10498000053AB1F800C00CFA02F2024362631868FB
:10499000434A904250D01868414A904259D0002072
:1049A00083F83C0002B030BC70470468206992B2C2
:1049B00002EB42024FF0070C0CFA02F220EA02026C
:1049C00022611C6820690A8802EB42028D6805FAA0
:1049D00002F202432261BFE70C2A16D81D68286B39
:1049E00002EB8202233A1F2404FA02F220EA0202B6
:1049F0002A631D68286B4A6802EB8202233A0C88FE
:104A000004FA02F202432A63C1E71D68E86A02EB76
:104A10008202413A1F2404FA02F220EA0202EA6208
:104A20001D68E86A4A6802EB8202413A0C8804FA7F
:104A300002F20243EA62AAE70A68122AABD1194AD3
:104A4000506820F400005060506840F480005060CE
:104A5000A1E70A681448824201D0112A9FD1114A65
:104A6000506820F480005060506840F400005060AE
:104A700009680D4A914292D10C4A12680C49A1FB77
:104A80000212920C02EB820252000192019A002A59
:104A900085D0019A013A0192F8E7022082E700BF2F
:104AA000002001400023014012000010F801002006
:104AB00083DE1B4370470000002807DB00F01F0265
:104AC000400901239340024A42F82030704700BF5A
:104AD00000E100E0002808DB0901C9B200F16040F4
:104AE00000F5614080F80013704700F00F000901E5
:104AF000C9B2014B1954704714ED00E000B500F045
:104B00000700C0F1070CBCF1040F28BF4FF0040CE4
:104B1000031D062B0FD9C31E4FF0FF3E0EFA0CF0FB
:104B200021EA000199400EFA03FE22EA0E0241EA50
:104B300002005DF804FB0023EEE70000074AD3689B
:104B400023F4E0631B041B0C000200F4E060034349
:104B500043F0BF6343F40033D360704700ED00E0DF
:104B600010B50446054BD868C0F30220FFF7C6FF16
:104B700001462046FFF7AEFF10BD00BF00ED00E08C
:104B800008B5FFF799FF08BD00230F2B00F2D7806F
:104B900070B582B065E085684FEA430E032404FADD
:104BA0000EF425EA0405CC6804FA0EF42C43846064
:104BB000446824EA02044A68C2F300129A4022437D
:104BC00042605CE0DC08083450F8242003F007055C
:104BD000AD004FF00F0E0EFA05FE22EA0E0E0A6926
:104BE000AA4042EA0E0240F824205CE0042200E0E1
:104BF000002202FA0EF22A430234514D45F82420D5
:104C0000504A94686FEA0C0224EA0C054E6816F4C8
:104C1000801F01D04CEA04054A4CA560E46802EA12
:104C200004054E6816F4001F01D04CEA0405454CFB
:104C3000E560646802EA04054E6816F4003F01D09E
:104C40004CEA04053F4C6560246822404D6815F429
:104C5000803F01D04CEA04023A4C226001330F2B12
:104C60006BD801229A400C6804EA020C32EA040470
:104C7000F4D14C6804F00304013C012C8BD94A6840
:104C800002F00302032A09D0C4685D000322AA408F
:104C900024EA02048A68AA402243C2604A6802F0F9
:104CA0000302022A8ED004684FEA430E032202FA5E
:104CB0000EF224EA02044A6802F0030202FA0EF23B
:104CC000224302604A6812F4403FC7D0002201929A
:104CD0001D4A546C44F480445464526C02F4804283
:104CE0000192019A9C08A51C154A52F8255003F020
:104CF000030E4FEA8E0E0F2202FA0EF225EA02058B
:104D0000124A90423FF474AF02F5806290420ED096
:104D100002F5806290420CD002F5806290420AD087
:104D200002F5806290423FF461AF072261E7012201
:104D30005FE702225DE703225BE702B070BD7047C8
:104D400000380140003C01400038024000000240B1
:104D50000AB181617047090481617047436901EAC2
:104D6000030221EA030141EA02418161704750B325
:104D700038B5044603684CF6CC421A60036845F225
:104D800055521A60036842685A60036882689A60E4
:104D9000FFF74AFC05462368DA6812F0030F0DD0CE
:104DA000FFF742FC401B41F601039842F3D9236808
:104DB000DB6813F0030FEED0032003E04AF6AA22CB
:104DC0001A60002038BD0120704703684AF6AA2205
:104DD0001A6000207047000000B583B000220092E6
:104DE0000D4B596C41F480415964596C01F4804178
:104DF000009100990192196C41F0805119641B6C6B
:104E000003F080530193019B0F216FF00100FFF726
:104E1000A7FE03B05DF804FB00380240002800F054
:104E2000E08170B582B00446036813F0010F3BD0F7
:104E30009F4B9B6803F00C03042B2CD09C4B9B686E
:104E400003F00C03082B21D06368B3F5803F4FD0EB
:104E5000B3F5A02F52D0964B1A6822F480321A6014
:104E60001A6822F480221A606368002B50D0FFF782
:104E7000DBFB05468E4B1B6813F4003F14D1FFF794
:104E8000D3FB401B6428F5D90320B1E1884B5B6854
:104E900013F4800FD8D0864B1B6813F4003F03D067
:104EA0006368002B00F09F81236813F0020F54D039
:104EB0007F4B9B6813F00C0F3ED07D4B9B6803F03B
:104EC0000C03082B33D0E368002B68D0794B012208
:104ED0001A60FFF7A9FB0546754B1B6813F0020F1C
:104EE00054D1FFF7A1FB401B0228F5D903207FE135
:104EF0006F4A136843F480331360B5E76C4B1A684C
:104F000042F480221A601A6842F480321A60ABE7D9
:104F1000FFF78AFB0546664B1B6813F4003FC3D0BE
:104F2000FFF782FB401B6428F5D9032060E1604B4A
:104F30005B6813F4800FC6D15D4B1B6813F0020F42
:104F400003D0E368012B40F05081594A136823F0E5
:104F5000F803216943EAC1031360236813F0080FC3
:104F600042D063696BB3534B0122C3F8802EFFF725
:104F70005BFB05464E4B5B6F13F0020F34D1FFF71E
:104F800053FB401B0228F5D9032031E1484A13683E
:104F900023F0F803216943EAC1031360DDE7454BC1
:104FA00000221A60FFF740FB0546414B1B6813F0D7
:104FB000020FD2D0FFF738FB401B0228F5D903209F
:104FC00016E13C4B0022C3F8802EFFF72DFB05466F
:104FD000374B5B6F13F0020F06D0FFF725FB401B2A
:104FE0000228F5D9032003E1236813F0040F77D0DA
:104FF0002F4B1B6C13F0805F33D1002301932C4B9C
:105000001A6C42F080521A641B6C03F080530193B7
:10501000019B0125284B1B6813F4807F23D0A368D4
:10502000012B34D0052B38D0214B1A6F22F001020E
:105030001A671A6F22F004021A67A368002B3DD08A
:10504000FFF7F2FA06461A4B1B6F13F0020F46D118
:10505000FFF7EAFA801B41F288339842F3D9032024
:10506000C6E00025D6E7144A136843F48073136042
:10507000FFF7DAFA0646104B1B6813F4807FCED197
:10508000FFF7D2FA801B0228F5D90320B0E0084AC6
:10509000136F43F001031367CFE7054B1A6F42F01C
:1050A00004021A671A6F42F001021A67C5E700BFCF
:1050B000003802400000474200700040FFF7B4FA99
:1050C0000646524B1B6F13F0020F08D0FFF7ACFAE5
:1050D000801B41F288339842F3D9032088E0EDB970
:1050E000A369002B00F08380484A926802F00C020A
:1050F000082A51D0022B17D0454B00221A66FFF721
:1051000093FA0446414B1B6813F0007F42D0FFF72F
:105110008BFA001B0228F5D9032069E03B4A136C87
:1051200023F080531364DBE7394B00221A66FFF744
:105130007BFA0546354B1B6813F0007F06D0FFF75E
:1051400073FA401B0228F5D9032051E0E369226A73
:105150001343626A43EA8213A26A5208013A43EA9D
:105160000243E26A43EA0263284A5360284B012261
:105170001A66FFF759FA0446244B1B6813F0007FA8
:1051800006D1FFF751FA001B0228F5D903202FE0C2
:1051900000202DE000202BE0012B2BD01B4B5B6867
:1051A00003F48001E269914226D103F03F02216AB3
:1051B0008A4223D1616A47F6C0721A40B2EB811F5E
:1051C0001ED103F44031A26A5208013AB1EB024FFA
:1051D00018D103F07063E26AB3EB026F14D10020C0
:1051E00006E001207047012002E0012000E00020DD
:1051F00002B070BD0120FBE70120F9E70120F7E7CD
:105200000120F5E70120F3E70120F1E70038024033
:105210000000474208B5334B9B6803F00C03042B96
:105220005BD0082B5BD12F4B5A6802F03F025B68C2
:1052300013F4800F2CD02B4B5868C0F388104FEA22
:10524000401CBCEB000C6EEB0E0E4FEA8E1343EAD3
:105250009C634FEA8C11B1EB0C0163EB0E03DB0096
:1052600043EA5173C90011EB000C43F100035902EA
:1052700000234FEA4C2041EADC51FEF79FFD194B19
:105280005B68C3F3014301335B00B0FBF3F027E03D
:10529000144B5868C0F388104FEA401CBCEB000C5C
:1052A0006EEB0E0E4FEA8E1343EA9C634FEA8C11AD
:1052B000B1EB0C0163EB0E03DB0043EA5173C90051
:1052C00011EB000C43F10003990200234FEA8C20FC
:1052D00041EA9C51FEF772FDD1E7034800E0034824
:1052E00008BD00BF0038024000127A000024F4001C
:1052F000002800F09B8070B50D4604464F4B1B689C
:1053000003F007038B4208D2CBB24C4A13701368E8
:1053100003F007038B4240F08B80236813F0020FE9
:1053200017D013F0040F04D0454A936843F4E053B8
:105330009360236813F0080F04D0414A936843F444
:10534000604393603E4A936823F0F003A1680B43E7
:105350009360236813F0010F32D06368012B21D0D2
:105360009A1E012A25D9364A126812F0020F61D01E
:1053700033498A6822F0030213438B60FFF754F924
:1053800006462F4B9B6803F00C036268B3EB820F59
:1053900016D0FFF749F9801B41F288339842F0D9C3
:1053A000032042E0264A126812F4003FE0D10120B7
:1053B0003BE0234A126812F0007FD9D1012034E08B
:1053C0001E4B1B6803F00703AB4207D9EAB21B4B25
:1053D0001A701B6803F00703AB422DD1236813F04A
:1053E000040F06D0164A936823F4E053E1680B4398
:1053F0009360236813F0080F07D0114A936823F4D1
:105400006043216943EAC1039360FFF703FF0C4B3C
:105410009B68C3F303130B4AD35CD8400A4B186054
:105420000A4B186800F0C2FA002070BD01207047D6
:105430000120FAE70120F8E70120F6E7003C0240EE
:1054400000380240885E0008F8010020F4010020C6
:10545000014B1868704700BFF801002008B5FFF73E
:10546000F7FF044B9B68C3F38223034AD35CD84005
:1054700008BD00BF00380240805E000808B5FFF795
:10548000E7FF044B9B68C3F34233034AD35CD84025
:1054900008BD00BF00380240805E00080F23036093
:1054A0000B4B9A6802F0030242609A6802F0F00225
:1054B00082609A6802F4E052C2609B68DB0803F4E1
:1054C000E0530361034B1B6803F007030B60704755
:1054D00000380240003C024010B4036A046A24F021
:1054E00001040462846924F0F00C4CEA021223F0F7
:1054F0000A030B43826103625DF8044B704710B4EA
:10550000036A046A24F010040462846924F4704C71
:105510004CEA023223F0A00343EA011382610362E2
:105520005DF8044B7047836823F070030B4343F02E
:10553000070383607047000090F83D30DBB2012B19
:105540002FD1022380F83D300268D36843F0010375
:10555000D3600368154A934218D0B3F1804F15D039
:10556000A2F57C42934211D002F5806293420DD0A5
:1055700002F58062934209D002F59A32934205D037
:105580001A6842F001021A60002070479A6802F01F
:105590000702062A07D01A6842F001021A600020AA
:1055A0007047012070470020704700BF0000014095
:1055B000704770477047704770B504460368DE68EF
:1055C0001D6915F0020F10D016F0020F0DD06FF00C
:1055D00002021A610123037703689B6913F0030F2A
:1055E0005ED0FFF7E6FF0023237715F0040F12D0FB
:1055F00016F0040F0FD023686FF004021A61022323
:10560000237723689B6913F4407F4FD02046FFF730
:10561000D0FF0023237715F0080F12D016F0080FE3
:105620000FD023686FF008021A61042323772368E0
:10563000DB6913F0030F40D02046FFF7BAFF0023C9
:10564000237715F0100F12D016F0100F0FD023682B
:105650006FF010021A61082323772368DB6913F4C3
:10566000407F31D02046FFF7A4FF0023237715F0B9
:10567000010F02D016F0010F2DD115F0800F02D0CE
:1056800016F0800F2FD115F0400F02D016F0400F0A
:1056900031D115F0200F02D016F0200F33D170BD9C
:1056A000FFF786FF2046FFF785FF9CE72046FFF7C0
:1056B0007FFF2046FFF77EFFABE72046FFF778FF2E
:1056C0002046FFF777FFBAE72046FFF771FF204635
:1056D000FFF770FFC9E723686FF001021A612046E7
:1056E000FEF760FEC9E723686FF080021A6120466A
:1056F00000F05BF9C7E723686FF040021A612046AB
:10570000FFF759FFC5E723686FF020021A612046B2
:1057100000F04AF9C3E700000368274A90420ED020
:10572000B0F1804F0BD0A2F57C42904207D002F539
:105730008062904203D002F58062904203D123F050
:1057400070034A6813431C4A90421AD0B0F1804F4C
:1057500017D0A2F57C42904213D002F580629042AD
:105760000FD002F5806290420BD002F59A3290423F
:1057700007D002F58062904203D002F58062904229
:1057800003D123F44073CA68134323F080034A69AA
:1057900013438A68C2620A688262074A904207D04D
:1057A000026842F004020260012242610360704715
:1057B0000A690263F4E700BF0000014040B310B57E
:1057C000044690F83D30F3B1022384F83D30214681
:1057D00051F8040BFFF7A0FF012384F8463084F84A
:1057E0003E3084F83F3084F8403084F8413084F80B
:1057F000423084F8433084F8443084F8453084F8EB
:105800003D30002010BD80F83C3000F079FADBE735
:105810000120704710B4846824F47F4C42EA0322CC
:105820000A4342EA0C0282605DF8044B704790F82C
:105830003C30012B78D010B50446012380F83C3071
:10584000022380F83D300268936823F47F4323F0FD
:10585000770393600B68602B4CD029D8402B54D031
:105860000CD9502B22D1CA6849680068FFF734FE72
:1058700050212068FFF757FE002005E0202B0DD0B7
:1058800009D9302B0AD00120012384F83D300023B0
:1058900084F83C3010BD0BB1102B05D1194620689F
:1058A000FFF741FE0020EFE70120EDE70120EBE7E5
:1058B000B3F5805F34D0B3F5005F0CD1CB684A6894
:1058C00089680068FFF7A6FF2268936843F4804365
:1058D00093600020D8E7702B24D1CB684A68896890
:1058E0000068FFF797FF2268936843F0770393609F
:1058F0000020C9E7CA6849680068FFF700FE602118
:105900002068FFF710FE0020BEE7CA6849680068FB
:10591000FFF7E2FD40212068FFF705FE0020B3E716
:105920000020B1E70120AFE70220704790F83C204B
:10593000012A35D010B40346012280F83C2002220F
:1059400080F83D2002685068946820F0700C086868
:1059500040EA0C0050601A681248824212D0B2F13C
:10596000804F0FD0A0F57C4082420BD000F58060C4
:10597000824207D000F58060824203D000F59A3061
:10598000824204D124F080044968214391600122BD
:1059900083F83D20002083F83C005DF8044B7047FD
:1059A00002207047000001407047704730B589B051
:1059B0000546002401941D4B5A6C42F001025A64C2
:1059C0005B6C03F001030193019B02A903A8FFF79D
:1059D00065FDFFF753FD164AA2FB00239B0C013B1C
:1059E0001448154A026040F2E732C2604360046125
:1059F00084608461FFF7E2FE044610B1204609B0DE
:105A000030BD0C48FFF798FD04460028F6D1192058
:105A1000FFF7B6F80F2D01D90124EFE70022294640
:105A20001920FFF79DF8054B1D60E7E7003802409D
:105A300083DE1B430C18002000000140F40100200D
:105A400010B504460268136923F44053C1680B4340
:105A50001361836802691A4343691A43C3691A438D
:105A60000168CB6823F4164323F00C031343CB6087
:105A70000268536923F4407381690B4353610368DF
:105A8000314A934206D002F58062934202D0FFF77A
:105A9000E5FC01E0FFF7F2FCE369B3F5004F29D024
:105AA0000021031849411B1841F10001C90041EAD6
:105AB0005371DB00181863684FEA83024FEA93734F
:105AC00041F10001FEF77AF9204AA2FB00314909B1
:105AD000642303FB11031B013233A2FB03235B0985
